:020000040800F2
:10000000680600202902000865020008670200084F
:10001000690200086B0200086D0200080000000081
:100020000000000000000000000000006F02000857
:100030007102000800000000730200085D0400085F
:1000400077020008770200087702000877020008AC
:10005000770200087702000877020008770200089C
:10006000770200087702000877020008770200088C
:10007000770200087702000877020008770200087C
:10008000770200087702000877020008770200086C
:10009000770200087702000877020008770200085C
:1000A000770200087702000877020008770200084C
:1000B000770200087702000877020008770200083C
:1000C000770200087702000877020008770200082C
:1000D000770200087702000877020008770200081C
:1000E000770200087702000877020008770200080C
:1000F00077020008770200087702000877020008FC
:1001000077020008770200087702000877020008EB
:1001100077020008770200087702000877020008DB
:1001200077020008770200087702000877020008CB
:1001300077020008770200087702000877020008BB
:1001400077020008770200087702000877020008AB
:10015000770200087702000877020008770200089B
:10016000770200087702000877020008770200088B
:1001700077020008770200087702000800000000FC
:10018000770200087702000800F002F800F03CF85F
:100190000AA090E8000C82448344AAF10107DA45E2
:1001A00001D100F031F8AFF2090EBAE80F0013F0F8
:1001B000010F18BFFB1A43F001031847F4080000B1
:1001C00014090000103A24BF78C878C1FAD8520741
:1001D00024BF30C830C144BF04680C6070470000C1
:1001E0000023002400250026103A28BF78C1FBD840
:1001F000520728BF30C148BF0B6070471FB500F0E1
:1002000051FC1FBD10B510BD00F053F81146FFF7AB
:10021000F5FF00F069FB00F071F803B4FFF7F2FF9F
:1002200003BC00F079F8000016481749174B9942B3
:100230003CBF50F8042B41F8042BF8D314494FF07D
:1002400000028B4238BF43F8042BFAD3DFF8440096
:10025000016841F470010160BFF34F8FBFF36F8FEE
:100260000D480047FEE7FEE7FEE7FEE7FEE7FEE794
:10027000FEE7FEE7FEE7FEE708480949094A0A4BA0
:1002800070470000D00A000800000020080000208D
:100290006806002088ED00E0890100086800002061
:1002A000680600206802002068020020704770473E
:1002B0007047754600F02CF8AE4605006946534677
:1002C00020F00700854618B020B5FFF7D5FFBDE840
:1002D00020404FF000064FF000074FF000084FF0AD
:1002E000000B21F00701AC46ACE8C009ACE8C0093E
:1002F000ACE8C009ACE8C0098D46704710B50446AB
:10030000AFF300802046BDE81040FFF786BF000035
:10031000004870470800002001491820ABBEFEE7E6
:1003200026000200704700000348406920F48070F6
:1003300001494861704700000010004803484069C7
:1003400040F4807001494861704700000010004887
:100350004FF09040406920F004004FF09041486118
:1003600070474FF09040406940F004004FF09041DA
:10037000486170474FF09040406920F008004FF00E
:100380009041486170474FF09040406940F008004C
:100390004FF09041486170472348C06C40F0120014
:1003A0002149C8646FF030002049086008460068A1
:1003B00040F0100008601D480830006820F0300050
:1003C0001A49083108600846006840F030000860AB
:1003D000081F006820F00400091F086013480C3053
:1003E000006820F0300011490C3108606FF4403093
:1003F0000F4908600846006840F4803008600846ED
:10040000806820F4403088600846806840F44030BE
:1004100088600846406820F4807048600846C068DC
:1004200020F44030C86070470010024000040048CB
:10043000001000480348006820F0040001490860EB
:1004400070470000140400480348006840F00400AE
:100450000149086070470000140400480248006821
:10046000401C0149086070470400002030B5024676
:1004700000204FF0E0210861501E4861481701211B
:10048000002804DB0B071C0E504B1C5406E00B0726
:100490001D0E4F4B00F00F04241F1D5500BF4FF0E1
:1004A000FF3000280DDB00BF00BF00F01F0301215B
:1004B000994043099B0003F1E023C3F8001100BFFA
:1004C00000BF00BF00204FF0E021886108460069AE
:1004D00020F0040008610846006940F0020008614D
:1004E0000846006940F0010008613A48C06C40F0DD
:1004F00001003849C8644FF09040006820F00300C4
:100500004FF090410860084600680860084600699E
:1005100020F0010008610846006820F00C00086027
:100520000846006840F0040008600846806820F033
:100530000C0088600846806840F00C00886008461F
:10054000406820F0020048600846C06820F00C00B7
:10055000C8600846006820F030000860084600685F
:1005600040F0100008600846806820F03000886085
:100570000846806840F0300088600846406820F0F7
:10058000040048600846C06820F03000C860084693
:10059000006820F0C00008600846006840F0400095
:1005A00008600846806820F0C000886008468068BF
:1005B00040F0C00088600846406820F008004860AD
:1005C0000846C06820F0C000C86030BD00E400E00C
:1005D00018ED00E0001002405E49096821F00701B3
:1005E0005C4A11601146096841F0020111605A49E4
:1005F000096841F48071584A116000BF5649096882
:1006000001F480610029F9D010205349496821F094
:10061000F851514A51601146496841EA0061516000
:100620001146096821F08071116000BF4A490968CC
:1006300001F00071B1F1007FF8D04749C96821F09D
:100640000301454AD1601146C96841F00201D160F9
:100650001146C96821F4FE4141F4A051D160114610
:10066000C96821F0700141F01001D1601146C968DC
:1006700021F0C061D1601146C96841F08071D1603C
:100680001146096841F08071116000BF3249096864
:1006900001F000710029F9D02F49896821F0030188
:1006A0002D4A91601146896841F00301916000BFB5
:1006B0002949896801F00C010C29F9D1264989687A
:1006C00021F0F001244A91601146896821F4E0612B
:1006D00091601146896821F4605191601146096862
:1006E00021F08061116000BF1B49096801F0806141
:1006F000B1F1806FF8D01849096921F4FE41164A1A
:1007000011611146096941F4C0511161114609692D
:1007100041F4003111611146096941F480311161E0
:100720001146096841F08061116000BF0A490968FB
:1007300001F080610029F9D007498831096821F466
:100740004001054AC2F888101146096E41F40011B3
:100750001166704700200240001002404FF09040A8
:10076000406920F002004FF09041486170474FF01F
:100770009040406940F002004FF09041486170475E
:100780001A48C06C40F008001849C864184800684E
:1007900020F47050164908600846006840F4205064
:1007A000086013482030006840F0EE6010492031A6
:1007B00008600F480830006840F470500C49083158
:1007C0000860081D006820F47050091D0860084684
:1007D000006840F4A05008600548001D006820F043
:1007E00060000349091D08607047000000100240C6
:1007F000000C004800B50D48806D40F400300B49F6
:1008000088650A488830006820F00C00C1F888002C
:100810000846D0F8880040F00400C1F88800FFF7CF
:10082000AFFF034800F006F800BD000000100240D2
:1008300000440040016821F001010160016821F0DD
:1008400010210160016821F400410160416821F438
:100850004051416042F28D01C160016841F00C01DC
:1008600001601E4988421BD1016841F020010160EE
:10087000016821F040010160016821F01001016070
:10088000016821F080010160016821F4807101603C
:10089000016821F040010160016821F0010101605F
:1008A0000F49884209D1016A41F0400101620D49B6
:1008B000096841F0C0010B4A1160016841F0010173
:1008C000016000BFC16901F400110029FAD000BF26
:1008D000C16901F480010029FAD07047004C004042
:1008E000004400400838014086B04FF01D0B5D20E9
:1008F00005909D200490ED20039000BF00BF00BF35
:1009000060200290FFF768FEFFF746FD4FF4FA60A3
:10091000FFF7ACFDFFF76EFF0520019000BF002739
:10092000002000900024FFF785FDFFF7FDFCB1E0FB
:100930004FF09040006900F0310008B9012000E05C
:100940000020054645B9BAF1000F05D127B900F0DE
:10095000A3F800F12D092BE000F09EF8484506DDD4
:100960002DB127B900F098F800F19D0720E000F0C4
:1009700093F8B84204DA00F08FF800F19D0A17E00E
:1009800000F08AF8504510DA55B18EB16006040EB9
:1009900000F082F8B04201DD601CC4B2002607E01E
:1009A00036B900F079F8061D02E04FF0000A002782
:1009B000029884420AD101200090FFF7B5FCFFF7AE
:1009C00039FDFFF7C5FCFFF7D5FC38E005988442F8
:1009D00008D1FFF739FDFFF7A7FCFFF7C2FCFFF7CF
:1009E000C9FC2CE00498844208D1FFF723FDFFF7EF
:1009F000A5FCFFF7ADFCFFF7C6FC20E05C4508D185
:100A0000FFF79CFCFFF716FDFFF7ABFCFFF7B2FC0E
:100A100015E00398844208D1FFF716FDFFF784FC28
:100A2000FFF796FCFFF7AFFC09E0FFF77DFCFFF74F
:100A300001FDFFF78DFCFFF79DFC00200090009862
:100A4000B0B100F029F840F2DC5190FBF1F201FB6B
:100A5000120008B90520019000F01EF840F6B831E8
:100A600090FBF1F201FB120020B90C20019001E093
:100A7000082001900198804502DCFFF778FE01E034
:100A8000FFF76CFE00F008F8642190FBF1F201FB27
:100A9000120800BF4CE700000148006870470000E2
:100AA000040000204FF04070E1EE100A7047000093
:100AB000D00A00080000002008000000C40100085F
:100AC000D80A00080800002060060000E0010008C5
:080AD00000000000000000001E
:040000050800018965
:00000001FF
